{
  "contractName": "Vote",
  "abi": [
    {
      "anonymous": false,
      "inputs": [
        {
          "indexed": false,
          "internalType": "uint256",
          "name": "id",
          "type": "uint256"
        },
        {
          "indexed": false,
          "internalType": "address",
          "name": "author",
          "type": "address"
        },
        {
          "indexed": false,
          "internalType": "string",
          "name": "content",
          "type": "string"
        },
        {
          "indexed": false,
          "internalType": "uint256",
          "name": "timestamp",
          "type": "uint256"
        },
        {
          "indexed": false,
          "internalType": "bool",
          "name": "voteForNextJs",
          "type": "bool"
        }
      ],
      "name": "CommentCreated",
      "type": "event"
    },
    {
      "anonymous": false,
      "inputs": [
        {
          "indexed": true,
          "internalType": "address",
          "name": "voter",
          "type": "address"
        },
        {
          "indexed": false,
          "internalType": "bool",
          "name": "voteForNextJs",
          "type": "bool"
        }
      ],
      "name": "NewVoteSubmitted",
      "type": "event"
    },
    {
      "inputs": [],
      "name": "NextJsVotes",
      "outputs": [
        {
          "internalType": "uint256",
          "name": "",
          "type": "uint256"
        }
      ],
      "stateMutability": "view",
      "type": "function",
      "constant": true
    },
    {
      "inputs": [],
      "name": "NuxtJsVotes",
      "outputs": [
        {
          "internalType": "uint256",
          "name": "",
          "type": "uint256"
        }
      ],
      "stateMutability": "view",
      "type": "function",
      "constant": true
    },
    {
      "inputs": [
        {
          "internalType": "uint256",
          "name": "",
          "type": "uint256"
        }
      ],
      "name": "allComments",
      "outputs": [
        {
          "internalType": "uint256",
          "name": "id",
          "type": "uint256"
        },
        {
          "internalType": "address",
          "name": "author",
          "type": "address"
        },
        {
          "internalType": "string",
          "name": "content",
          "type": "string"
        },
        {
          "internalType": "uint256",
          "name": "timestamp",
          "type": "uint256"
        },
        {
          "internalType": "bool",
          "name": "isForNextJs",
          "type": "bool"
        }
      ],
      "stateMutability": "view",
      "type": "function",
      "constant": true
    },
    {
      "inputs": [
        {
          "internalType": "address",
          "name": "",
          "type": "address"
        },
        {
          "internalType": "uint256",
          "name": "",
          "type": "uint256"
        }
      ],
      "name": "comments",
      "outputs": [
        {
          "internalType": "uint256",
          "name": "id",
          "type": "uint256"
        },
        {
          "internalType": "address",
          "name": "author",
          "type": "address"
        },
        {
          "internalType": "string",
          "name": "content",
          "type": "string"
        },
        {
          "internalType": "uint256",
          "name": "timestamp",
          "type": "uint256"
        },
        {
          "internalType": "bool",
          "name": "isForNextJs",
          "type": "bool"
        }
      ],
      "stateMutability": "view",
      "type": "function",
      "constant": true
    },
    {
      "inputs": [
        {
          "internalType": "address",
          "name": "",
          "type": "address"
        }
      ],
      "name": "voters",
      "outputs": [
        {
          "internalType": "bool",
          "name": "hasVoted",
          "type": "bool"
        },
        {
          "internalType": "bool",
          "name": "voteForNextJs",
          "type": "bool"
        }
      ],
      "stateMutability": "view",
      "type": "function",
      "constant": true
    },
    {
      "inputs": [
        {
          "internalType": "bool",
          "name": "isForNextJs",
          "type": "bool"
        }
      ],
      "name": "vote",
      "outputs": [],
      "stateMutability": "nonpayable",
      "type": "function"
    },
    {
      "inputs": [
        {
          "internalType": "string",
          "name": "_comment",
          "type": "string"
        }
      ],
      "name": "createComment",
      "outputs": [],
      "stateMutability": "nonpayable",
      "type": "function"
    },
    {
      "inputs": [],
      "name": "getVotes",
      "outputs": [
        {
          "internalType": "uint256[2]",
          "name": "",
          "type": "uint256[2]"
        }
      ],
      "stateMutability": "view",
      "type": "function",
      "constant": true
    },
    {
      "inputs": [
        {
          "internalType": "address",
          "name": "_owner",
          "type": "address"
        }
      ],
      "name": "getCommentsByAddress",
      "outputs": [
        {
          "components": [
            {
              "internalType": "uint256",
              "name": "id",
              "type": "uint256"
            },
            {
              "internalType": "address",
              "name": "author",
              "type": "address"
            },
            {
              "internalType": "string",
              "name": "content",
              "type": "string"
            },
            {
              "internalType": "uint256",
              "name": "timestamp",
              "type": "uint256"
            },
            {
              "internalType": "bool",
              "name": "isForNextJs",
              "type": "bool"
            }
          ],
          "internalType": "struct Vote.Comment[]",
          "name": "",
          "type": "tuple[]"
        }
      ],
      "stateMutability": "view",
      "type": "function",
      "constant": true
    },
    {
      "inputs": [],
      "name": "getAllComments",
      "outputs": [
        {
          "components": [
            {
              "internalType": "uint256",
              "name": "id",
              "type": "uint256"
            },
            {
              "internalType": "address",
              "name": "author",
              "type": "address"
            },
            {
              "internalType": "string",
              "name": "content",
              "type": "string"
            },
            {
              "internalType": "uint256",
              "name": "timestamp",
              "type": "uint256"
            },
            {
              "internalType": "bool",
              "name": "isForNextJs",
              "type": "bool"
            }
          ],
          "internalType": "struct Vote.Comment[]",
          "name": "",
          "type": "tuple[]"
        }
      ],
      "stateMutability": "view",
      "type": "function",
      "constant": true
    }
  ],
  "bytecode": "0x60806040525f80555f600155348015610016575f80fd5b506118aa806100245f395ff3fe608060405234801561000f575f80fd5b506004361061009c575f3560e01c8063699caeb911610064578063699caeb9146101605780636e079c231461017e57806371f13071146101ae578063a3ec138d146101ca578063d560000a146101fb5761009c565b80630c4174b7146100a05780630dc96015146100d457806310440904146100f25780634b9f5c981461011057806363dc0bb31461012c575b5f80fd5b6100ba60048036038101906100b59190610d98565b610219565b6040516100cb959493929190610e98565b60405180910390f35b6100dc610316565b6040516100e99190610f95565b60405180910390f35b6100fa61033b565b6040516101079190611142565b60405180910390f35b61012a6004803603810190610125919061118c565b6104a9565b005b610146600480360381019061014191906111b7565b610655565b604051610157959493929190610e98565b60405180910390f35b610168610747565b60405161017591906111e2565b60405180910390f35b610198600480360381019061019391906111fb565b61074d565b6040516101a59190611142565b60405180910390f35b6101c860048036038101906101c39190611352565b6108f8565b005b6101e460048036038101906101df91906111fb565b610c9b565b6040516101f2929190611399565b60405180910390f35b610203610cd3565b60405161021091906111e2565b60405180910390f35b6003602052815f5260405f208181548110610232575f80fd5b905f5260205f2090600502015f9150915050805f015490806001015f9054906101000a900473ffffffffffffffffffffffffffffffffffffffff169080600201805461027d906113ed565b80601f01602080910402602001604051908101604052809291908181526020018280546102a9906113ed565b80156102f45780601f106102cb576101008083540402835291602001916102f4565b820191905f5260205f20905b8154815290600101906020018083116102d757829003601f168201915b505050505090806003015490806004015f9054906101000a900460ff16905085565b61031e610cd8565b60405180604001604052805f548152602001600154815250905090565b60606004805480602002602001604051908101604052809291908181526020015f905b828210156104a0578382905f5260205f2090600502016040518060a00160405290815f8201548152602001600182015f9054906101000a900473ffffffffffffffffffffffffffffffffffffffff1673ffffffffffffffffffffffffffffffffffffffff1673ffffffffffffffffffffffffffffffffffffffff1681526020016002820180546103ed906113ed565b80601f0160208091040260200160405190810160405280929190818152602001828054610419906113ed565b80156104645780601f1061043b57610100808354040283529160200191610464565b820191905f5260205f20905b81548152906001019060200180831161044757829003601f168201915b5050505050815260200160038201548152602001600482015f9054906101000a900460ff1615151515815250508152602001906001019061035e565b50505050905090565b60025f3373ffffffffffffffffffffffffffffffffffffffff1673ffffffffffffffffffffffffffffffffffffffff1681526020019081526020015f205f015f9054906101000a900460ff1615610535576040517f08c379a000000000000000000000000000000000000000000000000000000000815260040161052c90611467565b60405180910390fd5b8015610556575f8081548092919061054c906114b2565b919050555061056e565b60015f815480929190610568906114b2565b91905055505b604051806040016040528060011515815260200182151581525060025f3373ffffffffffffffffffffffffffffffffffffffff1673ffffffffffffffffffffffffffffffffffffffff1681526020019081526020015f205f820151815f015f6101000a81548160ff0219169083151502179055506020820151815f0160016101000a81548160ff0219169083151502179055509050503373ffffffffffffffffffffffffffffffffffffffff167f522ed83e5a9eb9e980e5cea1bf66a02939607d6b27dcf0551f275e348c7c41568260405161064a91906114f9565b60405180910390a250565b60048181548110610664575f80fd5b905f5260205f2090600502015f91509050805f015490806001015f9054906101000a900473ffffffffffffffffffffffffffffffffffffffff16908060020180546106ae906113ed565b80601f01602080910402602001604051908101604052809291908181526020018280546106da906113ed565b80156107255780601f106106fc57610100808354040283529160200191610725565b820191905f5260205f20905b81548152906001019060200180831161070857829003601f168201915b505050505090806003015490806004015f9054906101000a900460ff16905085565b60015481565b606060035f8373ffffffffffffffffffffffffffffffffffffffff1673ffffffffffffffffffffffffffffffffffffffff1681526020019081526020015f20805480602002602001604051908101604052809291908181526020015f905b828210156108ed578382905f5260205f2090600502016040518060a00160405290815f8201548152602001600182015f9054906101000a900473ffffffffffffffffffffffffffffffffffffffff1673ffffffffffffffffffffffffffffffffffffffff1673ffffffffffffffffffffffffffffffffffffffff16815260200160028201805461083a906113ed565b80601f0160208091040260200160405190810160405280929190818152602001828054610866906113ed565b80156108b15780601f10610888576101008083540402835291602001916108b1565b820191905f5260205f20905b81548152906001019060200180831161089457829003601f168201915b5050505050815260200160038201548152602001600482015f9054906101000a900460ff161515151581525050815260200190600101906107ab565b505050509050919050565b60c861ffff1681511115610941576040517f08c379a00000000000000000000000000000000000000000000000000000000081526004016109389061155c565b60405180910390fd5b60025f3373ffffffffffffffffffffffffffffffffffffffff1673ffffffffffffffffffffffffffffffffffffffff1681526020019081526020015f205f015f9054906101000a900460ff166109cc576040517f08c379a00000000000000000000000000000000000000000000000000000000081526004016109c3906115ea565b60405180910390fd5b5f6040518060a0016040528060035f3373ffffffffffffffffffffffffffffffffffffffff1673ffffffffffffffffffffffffffffffffffffffff1681526020019081526020015f208054905081526020013373ffffffffffffffffffffffffffffffffffffffff16815260200183815260200142815260200160025f3373ffffffffffffffffffffffffffffffffffffffff1673ffffffffffffffffffffffffffffffffffffffff1681526020019081526020015f205f0160019054906101000a900460ff161515815250905060035f3373ffffffffffffffffffffffffffffffffffffffff1673ffffffffffffffffffffffffffffffffffffffff1681526020019081526020015f2081908060018154018082558091505060019003905f5260205f2090600502015f909190919091505f820151815f01556020820151816001015f6101000a81548173ffffffffffffffffffffffffffffffffffffffff021916908373ffffffffffffffffffffffffffffffffffffffff1602179055506040820151816002019081610b6191906117a5565b50606082015181600301556080820151816004015f6101000a81548160ff0219169083151502179055505050600481908060018154018082558091505060019003905f5260205f2090600502015f909190919091505f820151815f01556020820151816001015f6101000a81548173ffffffffffffffffffffffffffffffffffffffff021916908373ffffffffffffffffffffffffffffffffffffffff1602179055506040820151816002019081610c1991906117a5565b50606082015181600301556080820151816004015f6101000a81548160ff02191690831515021790555050507fd0e141995b8f67f0a0871d6cc19476a55904edfd603fad182cb3a536181618ea815f01518260200151836040015184606001518560800151604051610c8f959493929190610e98565b60405180910390a15050565b6002602052805f5260405f205f91509050805f015f9054906101000a900460ff1690805f0160019054906101000a900460ff16905082565b5f5481565b6040518060400160405280600290602082028036833780820191505090505090565b5f604051905090565b5f80fd5b5f80fd5b5f73ffffffffffffffffffffffffffffffffffffffff82169050919050565b5f610d3482610d0b565b9050919050565b610d4481610d2a565b8114610d4e575f80fd5b50565b5f81359050610d5f81610d3b565b92915050565b5f819050919050565b610d7781610d65565b8114610d81575f80fd5b50565b5f81359050610d9281610d6e565b92915050565b5f8060408385031215610dae57610dad610d03565b5b5f610dbb85828601610d51565b9250506020610dcc85828601610d84565b9150509250929050565b610ddf81610d65565b82525050565b610dee81610d2a565b82525050565b5f81519050919050565b5f82825260208201905092915050565b5f5b83811015610e2b578082015181840152602081019050610e10565b5f8484015250505050565b5f601f19601f8301169050919050565b5f610e5082610df4565b610e5a8185610dfe565b9350610e6a818560208601610e0e565b610e7381610e36565b840191505092915050565b5f8115159050919050565b610e9281610e7e565b82525050565b5f60a082019050610eab5f830188610dd6565b610eb86020830187610de5565b8181036040830152610eca8186610e46565b9050610ed96060830185610dd6565b610ee66080830184610e89565b9695505050505050565b5f60029050919050565b5f81905092915050565b5f819050919050565b610f1681610d65565b82525050565b5f610f278383610f0d565b60208301905092915050565b5f602082019050919050565b610f4881610ef0565b610f528184610efa565b9250610f5d82610f04565b805f5b83811015610f8d578151610f748782610f1c565b9650610f7f83610f33565b925050600181019050610f60565b505050505050565b5f604082019050610fa85f830184610f3f565b92915050565b5f81519050919050565b5f82825260208201905092915050565b5f819050602082019050919050565b610fe081610d2a565b82525050565b5f82825260208201905092915050565b5f61100082610df4565b61100a8185610fe6565b935061101a818560208601610e0e565b61102381610e36565b840191505092915050565b61103781610e7e565b82525050565b5f60a083015f8301516110525f860182610f0d565b5060208301516110656020860182610fd7565b506040830151848203604086015261107d8282610ff6565b91505060608301516110926060860182610f0d565b5060808301516110a5608086018261102e565b508091505092915050565b5f6110bb838361103d565b905092915050565b5f602082019050919050565b5f6110d982610fae565b6110e38185610fb8565b9350836020820285016110f585610fc8565b805f5b85811015611130578484038952815161111185826110b0565b945061111c836110c3565b925060208a019950506001810190506110f8565b50829750879550505050505092915050565b5f6020820190508181035f83015261115a81846110cf565b905092915050565b61116b81610e7e565b8114611175575f80fd5b50565b5f8135905061118681611162565b92915050565b5f602082840312156111a1576111a0610d03565b5b5f6111ae84828501611178565b91505092915050565b5f602082840312156111cc576111cb610d03565b5b5f6111d984828501610d84565b91505092915050565b5f6020820190506111f55f830184610dd6565b92915050565b5f602082840312156112105761120f610d03565b5b5f61121d84828501610d51565b91505092915050565b5f80fd5b5f80fd5b7f4e487b71000000000000000000000000000000000000000000000000000000005f52604160045260245ffd5b61126482610e36565b810181811067ffffffffffffffff821117156112835761128261122e565b5b80604052505050565b5f611295610cfa565b90506112a1828261125b565b919050565b5f67ffffffffffffffff8211156112c0576112bf61122e565b5b6112c982610e36565b9050602081019050919050565b828183375f83830152505050565b5f6112f66112f1846112a6565b61128c565b9050828152602081018484840111156113125761131161122a565b5b61131d8482856112d6565b509392505050565b5f82601f83011261133957611338611226565b5b81356113498482602086016112e4565b91505092915050565b5f6020828403121561136757611366610d03565b5b5f82013567ffffffffffffffff81111561138457611383610d07565b5b61139084828501611325565b91505092915050565b5f6040820190506113ac5f830185610e89565b6113b96020830184610e89565b9392505050565b7f4e487b71000000000000000000000000000000000000000000000000000000005f52602260045260245ffd5b5f600282049050600182168061140457607f821691505b602082108103611417576114166113c0565b5b50919050565b7f596f752063616e206f6e6c7920766f7465206f6e6365210000000000000000005f82015250565b5f611451601783610dfe565b915061145c8261141d565b602082019050919050565b5f6020820190508181035f83015261147e81611445565b9050919050565b7f4e487b71000000000000000000000000000000000000000000000000000000005f52601160045260245ffd5b5f6114bc82610d65565b91507fffffffffffffffffffffffffffffffffffffffffffffffffffffffffffffffff82036114ee576114ed611485565b5b600182019050919050565b5f60208201905061150c5f830184610e89565b92915050565b7f436f6d6d656e7420697320746f6f206c6f6e67210000000000000000000000005f82015250565b5f611546601483610dfe565b915061155182611512565b602082019050919050565b5f6020820190508181035f8301526115738161153a565b9050919050565b7f596f75206e65656420746f20766f7465206265666f726520636f6d6d656e74695f8201527f6e67210000000000000000000000000000000000000000000000000000000000602082015250565b5f6115d4602383610dfe565b91506115df8261157a565b604082019050919050565b5f6020820190508181035f830152611601816115c8565b9050919050565b5f819050815f5260205f209050919050565b5f6020601f8301049050919050565b5f82821b905092915050565b5f600883026116647fffffffffffffffffffffffffffffffffffffffffffffffffffffffffffffffff82611629565b61166e8683611629565b95508019841693508086168417925050509392505050565b5f819050919050565b5f6116a96116a461169f84610d65565b611686565b610d65565b9050919050565b5f819050919050565b6116c28361168f565b6116d66116ce826116b0565b848454611635565b825550505050565b5f90565b6116ea6116de565b6116f58184846116b9565b505050565b5b818110156117185761170d5f826116e2565b6001810190506116fb565b5050565b601f82111561175d5761172e81611608565b6117378461161a565b81016020851015611746578190505b61175a6117528561161a565b8301826116fa565b50505b505050565b5f82821c905092915050565b5f61177d5f1984600802611762565b1980831691505092915050565b5f611795838361176e565b9150826002028217905092915050565b6117ae82610df4565b67ffffffffffffffff8111156117c7576117c661122e565b5b6117d182546113ed565b6117dc82828561171c565b5f60209050601f83116001811461180d575f84156117fb578287015190505b611805858261178a565b86555061186c565b601f19841661181b86611608565b5f5b828110156118425784890151825560018201915060208501945060208101905061181d565b8683101561185f578489015161185b601f89168261176e565b8355505b6001600288020188555050505b50505050505056fea2646970667358221220d6c324c629bb9145dd628bbe5ace266e29e9466ddc6c70bbc6d141decbc3e85664736f6c63430008170033",
  "immutableReferences": {},
  "source": "// SPDX-License-Identifier: MIT\r\n\r\npragma solidity ^0.8.0;\r\n\r\ncontract Vote {\r\n    uint256 public NextJsVotes = 0;\r\n    uint256 public NuxtJsVotes = 0;\r\n    uint16 constant MAX_COMMENT_LENGTH = 200;\r\n\r\n    struct Comment {\r\n        uint256 id;\r\n        address author;\r\n        string content;\r\n        uint256 timestamp;\r\n        bool isForNextJs;\r\n    }\r\n\r\n    struct Voter {\r\n        bool hasVoted;\r\n        bool voteForNextJs;\r\n    }\r\n\r\n    event NewVoteSubmitted(address indexed voter, bool voteForNextJs);\r\n\r\n    event CommentCreated(\r\n        uint256 id,\r\n        address author,\r\n        string content,\r\n        uint256 timestamp,\r\n        bool voteForNextJs\r\n    );\r\n\r\n    mapping(address => Voter) public voters;\r\n    mapping(address => Comment[]) public comments;\r\n\r\n    Comment[] public allComments;\r\n\r\n    modifier onlyOneVote() {\r\n        require(!voters[msg.sender].hasVoted, \"You can only vote once!\");\r\n        _;\r\n    }\r\n\r\n    function vote(bool isForNextJs) external onlyOneVote {\r\n        if (isForNextJs) {\r\n            NextJsVotes++;\r\n        } else {\r\n            NuxtJsVotes++;\r\n        }\r\n\r\n        voters[msg.sender] = Voter(true, isForNextJs);\r\n        emit NewVoteSubmitted(msg.sender, isForNextJs);\r\n    }\r\n\r\n    function createComment(string memory _comment) public {\r\n        require(\r\n            bytes(_comment).length <= MAX_COMMENT_LENGTH,\r\n            \"Comment is too long!\"\r\n        );\r\n        require(\r\n            voters[msg.sender].hasVoted,\r\n            \"You need to vote before commenting!\"\r\n        );\r\n\r\n        Comment memory newComment = Comment({\r\n            id: comments[msg.sender].length,\r\n            author: msg.sender,\r\n            content: _comment,\r\n            timestamp: block.timestamp,\r\n            isForNextJs: voters[msg.sender].voteForNextJs\r\n        });\r\n\r\n        comments[msg.sender].push(newComment);\r\n\r\n        allComments.push(newComment);\r\n\r\n        emit CommentCreated(\r\n            newComment.id,\r\n            newComment.author,\r\n            newComment.content,\r\n            newComment.timestamp,\r\n            newComment.isForNextJs\r\n        );\r\n    }\r\n\r\n    function getVotes() public view returns (uint256[2] memory) {\r\n        return [NextJsVotes, NuxtJsVotes];\r\n    }\r\n\r\n    function getCommentsByAddress(\r\n        address _owner\r\n    ) public view returns (Comment[] memory) {\r\n        return comments[_owner];\r\n    }\r\n\r\n    function getAllComments() public view returns (Comment[] memory) {\r\n        return allComments;\r\n    }\r\n}\r\n",
  "sourcePath": "C:\\Users\\Front Phoenix\\Desktop\\BlockChain\\Vote Dapp\\contracts\\Vote.sol",
  "compiler": {
    "name": "solc",
    "version": "0.8.23+commit.f704f362.Emscripten.clang"
  },
  "schemaVersion": "3.4.16",
  "updatedAt": "2023-12-29T15:55:54.561Z",
  "networkType": "ethereum",
  "devdoc": {
    "kind": "dev",
    "methods": {},
    "version": 1
  },
  "userdoc": {
    "kind": "user",
    "methods": {},
    "version": 1
  }
}