{
  "contractName": "Vote",
  "abi": [
    {
      "inputs": [
        {
          "internalType": "uint256",
          "name": "_votingDuration",
          "type": "uint256"
        }
      ],
      "stateMutability": "nonpayable",
      "type": "constructor"
    },
    {
      "anonymous": false,
      "inputs": [
        {
          "indexed": false,
          "internalType": "uint256",
          "name": "id",
          "type": "uint256"
        },
        {
          "indexed": true,
          "internalType": "address",
          "name": "author",
          "type": "address"
        },
        {
          "indexed": false,
          "internalType": "string",
          "name": "content",
          "type": "string"
        },
        {
          "indexed": false,
          "internalType": "uint256",
          "name": "timestamp",
          "type": "uint256"
        },
        {
          "indexed": false,
          "internalType": "bool",
          "name": "voteForNextJs",
          "type": "bool"
        }
      ],
      "name": "CommentCreated",
      "type": "event"
    },
    {
      "anonymous": false,
      "inputs": [
        {
          "indexed": true,
          "internalType": "address",
          "name": "voter",
          "type": "address"
        },
        {
          "indexed": false,
          "internalType": "bool",
          "name": "voteForNextJs",
          "type": "bool"
        }
      ],
      "name": "NewVoteSubmitted",
      "type": "event"
    },
    {
      "anonymous": false,
      "inputs": [
        {
          "indexed": false,
          "internalType": "uint256",
          "name": "newDeadline",
          "type": "uint256"
        }
      ],
      "name": "VotingDeadlineExtended",
      "type": "event"
    },
    {
      "inputs": [],
      "name": "NextJsVotes",
      "outputs": [
        {
          "internalType": "uint256",
          "name": "",
          "type": "uint256"
        }
      ],
      "stateMutability": "view",
      "type": "function",
      "constant": true
    },
    {
      "inputs": [],
      "name": "NuxtJsVotes",
      "outputs": [
        {
          "internalType": "uint256",
          "name": "",
          "type": "uint256"
        }
      ],
      "stateMutability": "view",
      "type": "function",
      "constant": true
    },
    {
      "inputs": [
        {
          "internalType": "uint256",
          "name": "",
          "type": "uint256"
        }
      ],
      "name": "allComments",
      "outputs": [
        {
          "internalType": "uint256",
          "name": "id",
          "type": "uint256"
        },
        {
          "internalType": "address",
          "name": "author",
          "type": "address"
        },
        {
          "internalType": "string",
          "name": "content",
          "type": "string"
        },
        {
          "internalType": "uint256",
          "name": "timestamp",
          "type": "uint256"
        },
        {
          "internalType": "bool",
          "name": "isForNextJs",
          "type": "bool"
        }
      ],
      "stateMutability": "view",
      "type": "function",
      "constant": true
    },
    {
      "inputs": [
        {
          "internalType": "address",
          "name": "",
          "type": "address"
        },
        {
          "internalType": "uint256",
          "name": "",
          "type": "uint256"
        }
      ],
      "name": "comments",
      "outputs": [
        {
          "internalType": "uint256",
          "name": "id",
          "type": "uint256"
        },
        {
          "internalType": "address",
          "name": "author",
          "type": "address"
        },
        {
          "internalType": "string",
          "name": "content",
          "type": "string"
        },
        {
          "internalType": "uint256",
          "name": "timestamp",
          "type": "uint256"
        },
        {
          "internalType": "bool",
          "name": "isForNextJs",
          "type": "bool"
        }
      ],
      "stateMutability": "view",
      "type": "function",
      "constant": true
    },
    {
      "inputs": [
        {
          "internalType": "address",
          "name": "",
          "type": "address"
        }
      ],
      "name": "voters",
      "outputs": [
        {
          "internalType": "bool",
          "name": "hasVoted",
          "type": "bool"
        },
        {
          "internalType": "bool",
          "name": "voteForNextJs",
          "type": "bool"
        }
      ],
      "stateMutability": "view",
      "type": "function",
      "constant": true
    },
    {
      "inputs": [
        {
          "internalType": "uint256",
          "name": "newDeadline",
          "type": "uint256"
        }
      ],
      "name": "setVotingDeadline",
      "outputs": [],
      "stateMutability": "nonpayable",
      "type": "function"
    },
    {
      "inputs": [
        {
          "internalType": "bool",
          "name": "isForNextJs",
          "type": "bool"
        }
      ],
      "name": "vote",
      "outputs": [],
      "stateMutability": "nonpayable",
      "type": "function"
    },
    {
      "inputs": [
        {
          "internalType": "string",
          "name": "_comment",
          "type": "string"
        }
      ],
      "name": "createComment",
      "outputs": [],
      "stateMutability": "nonpayable",
      "type": "function"
    },
    {
      "inputs": [],
      "name": "getVotes",
      "outputs": [
        {
          "internalType": "uint256[2]",
          "name": "",
          "type": "uint256[2]"
        }
      ],
      "stateMutability": "view",
      "type": "function",
      "constant": true
    },
    {
      "inputs": [
        {
          "internalType": "address",
          "name": "voter",
          "type": "address"
        }
      ],
      "name": "getCommentsByVoter",
      "outputs": [
        {
          "components": [
            {
              "internalType": "uint256",
              "name": "id",
              "type": "uint256"
            },
            {
              "internalType": "address",
              "name": "author",
              "type": "address"
            },
            {
              "internalType": "string",
              "name": "content",
              "type": "string"
            },
            {
              "internalType": "uint256",
              "name": "timestamp",
              "type": "uint256"
            },
            {
              "internalType": "bool",
              "name": "isForNextJs",
              "type": "bool"
            }
          ],
          "internalType": "struct Vote.Comment[]",
          "name": "",
          "type": "tuple[]"
        }
      ],
      "stateMutability": "view",
      "type": "function",
      "constant": true
    },
    {
      "inputs": [],
      "name": "getAllComments",
      "outputs": [
        {
          "components": [
            {
              "internalType": "uint256",
              "name": "id",
              "type": "uint256"
            },
            {
              "internalType": "address",
              "name": "author",
              "type": "address"
            },
            {
              "internalType": "string",
              "name": "content",
              "type": "string"
            },
            {
              "internalType": "uint256",
              "name": "timestamp",
              "type": "uint256"
            },
            {
              "internalType": "bool",
              "name": "isForNextJs",
              "type": "bool"
            }
          ],
          "internalType": "struct Vote.Comment[]",
          "name": "",
          "type": "tuple[]"
        }
      ],
      "stateMutability": "view",
      "type": "function",
      "constant": true
    },
    {
      "inputs": [],
      "name": "timeLeftForVoting",
      "outputs": [
        {
          "internalType": "uint256",
          "name": "",
          "type": "uint256"
        }
      ],
      "stateMutability": "view",
      "type": "function",
      "constant": true
    }
  ],
  "bytecode": "0x60806040526000805560006001553480156200001a57600080fd5b5060405162001dde38038062001dde8339818101604052810190620000409190620000ea565b33600360006101000a81548173ffffffffffffffffffffffffffffffffffffffff021916908373ffffffffffffffffffffffffffffffffffffffff16021790555080426200008f91906200014b565b60028190555043600481905550426005819055505062000186565b600080fd5b6000819050919050565b620000c481620000af565b8114620000d057600080fd5b50565b600081519050620000e481620000b9565b92915050565b600060208284031215620001035762000102620000aa565b5b60006200011384828501620000d3565b91505092915050565b7f4e487b7100000000000000000000000000000000000000000000000000000000600052601160045260246000fd5b60006200015882620000af565b91506200016583620000af565b925082820190508082111562000180576200017f6200011c565b5b92915050565b611c4880620001966000396000f3fe608060405234801561001057600080fd5b50600436106100b45760003560e01c806371f130711161007157806371f1307114610197578063a3ec138d146101b3578063cff27e90146101e4578063d560000a14610202578063d8eed17a14610220578063edfbf7b614610250576100b4565b80630c4174b7146100b95780630dc96015146100ed578063104409041461010b5780634b9f5c981461012957806363dc0bb314610145578063699caeb914610179575b600080fd5b6100d360048036038101906100ce9190610fa6565b61026c565b6040516100e49594939291906110af565b60405180910390f35b6100f5610374565b60405161010291906111b4565b60405180910390f35b61011361039a565b604051610120919061136f565b60405180910390f35b610143600480360381019061013e91906113bd565b610510565b005b61015f600480360381019061015a91906113ea565b6106c8565b6040516101709594939291906110af565b60405180910390f35b6101816107c3565b60405161018e9190611417565b60405180910390f35b6101b160048036038101906101ac9190611567565b6107c9565b005b6101cd60048036038101906101c891906115b0565b610ba9565b6040516101db9291906115dd565b60405180910390f35b6101ec610be7565b6040516101f99190611417565b60405180910390f35b61020a610c0e565b6040516102179190611417565b60405180910390f35b61023a600480360381019061023591906115b0565b610c14565b604051610247919061136f565b60405180910390f35b61026a600480360381019061026591906113ea565b610dc9565b005b6007602052816000526040600020818154811061028857600080fd5b9060005260206000209060050201600091509150508060000154908060010160009054906101000a900473ffffffffffffffffffffffffffffffffffffffff16908060020180546102d890611635565b80601f016020809104026020016040519081016040528092919081815260200182805461030490611635565b80156103515780601f1061032657610100808354040283529160200191610351565b820191906000526020600020905b81548152906001019060200180831161033457829003601f168201915b5050505050908060030154908060040160009054906101000a900460ff16905085565b61037c610edc565b60405180604001604052806000548152602001600154815250905090565b60606008805480602002602001604051908101604052809291908181526020016000905b8282101561050757838290600052602060002090600502016040518060a0016040529081600082015481526020016001820160009054906101000a900473ffffffffffffffffffffffffffffffffffffffff1673ffffffffffffffffffffffffffffffffffffffff1673ffffffffffffffffffffffffffffffffffffffff16815260200160028201805461045190611635565b80601f016020809104026020016040519081016040528092919081815260200182805461047d90611635565b80156104ca5780601f1061049f576101008083540402835291602001916104ca565b820191906000526020600020905b8154815290600101906020018083116104ad57829003601f168201915b50505050508152602001600382015481526020016004820160009054906101000a900460ff161515151581525050815260200190600101906103be565b50505050905090565b600660003373ffffffffffffffffffffffffffffffffffffffff1673ffffffffffffffffffffffffffffffffffffffff16815260200190815260200160002060000160009054906101000a900460ff16156105a0576040517f08c379a0000000000000000000000000000000000000000000000000000000008152600401610597906116b2565b60405180910390fd5b80156105c2576000808154809291906105b890611701565b91905055506105db565b600160008154809291906105d590611701565b91905055505b6040518060400160405280600115158152602001821515815250600660003373ffffffffffffffffffffffffffffffffffffffff1673ffffffffffffffffffffffffffffffffffffffff16815260200190815260200160002060008201518160000160006101000a81548160ff02191690831515021790555060208201518160000160016101000a81548160ff0219169083151502179055509050503373ffffffffffffffffffffffffffffffffffffffff167f522ed83e5a9eb9e980e5cea1bf66a02939607d6b27dcf0551f275e348c7c4156826040516106bd9190611749565b60405180910390a250565b600881815481106106d857600080fd5b90600052602060002090600502016000915090508060000154908060010160009054906101000a900473ffffffffffffffffffffffffffffffffffffffff169080600201805461072790611635565b80601f016020809104026020016040519081016040528092919081815260200182805461075390611635565b80156107a05780601f10610775576101008083540402835291602001916107a0565b820191906000526020600020905b81548152906001019060200180831161078357829003601f168201915b5050505050908060030154908060040160009054906101000a900460ff16905085565b60015481565b600081511180156107e0575060c861ffff16815111155b61081f576040517f08c379a0000000000000000000000000000000000000000000000000000000008152600401610816906117b0565b60405180910390fd5b600660003373ffffffffffffffffffffffffffffffffffffffff1673ffffffffffffffffffffffffffffffffffffffff16815260200190815260200160002060000160009054906101000a900460ff166108ae576040517f08c379a00000000000000000000000000000000000000000000000000000000081526004016108a59061181c565b60405180910390fd5b60006040518060a00160405280600760003373ffffffffffffffffffffffffffffffffffffffff1673ffffffffffffffffffffffffffffffffffffffff1681526020019081526020016000208054905081526020013373ffffffffffffffffffffffffffffffffffffffff168152602001838152602001428152602001600660003373ffffffffffffffffffffffffffffffffffffffff1673ffffffffffffffffffffffffffffffffffffffff16815260200190815260200160002060000160019054906101000a900460ff1615158152509050600760003373ffffffffffffffffffffffffffffffffffffffff1673ffffffffffffffffffffffffffffffffffffffff1681526020019081526020016000208190806001815401808255809150506001900390600052602060002090600502016000909190919091506000820151816000015560208201518160010160006101000a81548173ffffffffffffffffffffffffffffffffffffffff021916908373ffffffffffffffffffffffffffffffffffffffff1602179055506040820151816002019081610a5191906119e8565b506060820151816003015560808201518160040160006101000a81548160ff021916908315150217905550505060088190806001815401808255809150506001900390600052602060002090600502016000909190919091506000820151816000015560208201518160010160006101000a81548173ffffffffffffffffffffffffffffffffffffffff021916908373ffffffffffffffffffffffffffffffffffffffff1602179055506040820151816002019081610b1091906119e8565b506060820151816003015560808201518160040160006101000a81548160ff0219169083151502179055505050806020015173ffffffffffffffffffffffffffffffffffffffff167fd0e141995b8f67f0a0871d6cc19476a55904edfd603fad182cb3a536181618ea8260000151836040015184606001518560800151604051610b9d9493929190611aba565b60405180910390a25050565b60066020528060005260406000206000915090508060000160009054906101000a900460ff16908060000160019054906101000a900460ff16905082565b6000600254421015610c065742600254610c019190611b06565b610c09565b60005b905090565b60005481565b6060600760008373ffffffffffffffffffffffffffffffffffffffff1673ffffffffffffffffffffffffffffffffffffffff168152602001908152602001600020805480602002602001604051908101604052809291908181526020016000905b82821015610dbe57838290600052602060002090600502016040518060a0016040529081600082015481526020016001820160009054906101000a900473ffffffffffffffffffffffffffffffffffffffff1673ffffffffffffffffffffffffffffffffffffffff1673ffffffffffffffffffffffffffffffffffffffff168152602001600282018054610d0890611635565b80601f0160208091040260200160405190810160405280929190818152602001828054610d3490611635565b8015610d815780601f10610d5657610100808354040283529160200191610d81565b820191906000526020600020905b815481529060010190602001808311610d6457829003601f168201915b50505050508152602001600382015481526020016004820160009054906101000a900460ff16151515158152505081526020019060010190610c75565b505050509050919050565b600360009054906101000a900473ffffffffffffffffffffffffffffffffffffffff1673ffffffffffffffffffffffffffffffffffffffff163373ffffffffffffffffffffffffffffffffffffffff1614610e59576040517f08c379a0000000000000000000000000000000000000000000000000000000008152600401610e5090611b86565b60405180910390fd5b428111610e9b576040517f08c379a0000000000000000000000000000000000000000000000000000000008152600401610e9290611bf2565b60405180910390fd5b806002819055507fc0c354833e4e8ca8f792b3e6a970897b0acaa658555270246edeeb41883936ca81604051610ed19190611417565b60405180910390a150565b6040518060400160405280600290602082028036833780820191505090505090565b6000604051905090565b600080fd5b600080fd5b600073ffffffffffffffffffffffffffffffffffffffff82169050919050565b6000610f3d82610f12565b9050919050565b610f4d81610f32565b8114610f5857600080fd5b50565b600081359050610f6a81610f44565b92915050565b6000819050919050565b610f8381610f70565b8114610f8e57600080fd5b50565b600081359050610fa081610f7a565b92915050565b60008060408385031215610fbd57610fbc610f08565b5b6000610fcb85828601610f5b565b9250506020610fdc85828601610f91565b9150509250929050565b610fef81610f70565b82525050565b610ffe81610f32565b82525050565b600081519050919050565b600082825260208201905092915050565b60005b8381101561103e578082015181840152602081019050611023565b60008484015250505050565b6000601f19601f8301169050919050565b600061106682611004565b611070818561100f565b9350611080818560208601611020565b6110898161104a565b840191505092915050565b60008115159050919050565b6110a981611094565b82525050565b600060a0820190506110c46000830188610fe6565b6110d16020830187610ff5565b81810360408301526110e3818661105b565b90506110f26060830185610fe6565b6110ff60808301846110a0565b9695505050505050565b600060029050919050565b600081905092915050565b6000819050919050565b61113281610f70565b82525050565b60006111448383611129565b60208301905092915050565b6000602082019050919050565b61116681611109565b6111708184611114565b925061117b8261111f565b8060005b838110156111ac5781516111938782611138565b965061119e83611150565b92505060018101905061117f565b505050505050565b60006040820190506111c9600083018461115d565b92915050565b600081519050919050565b600082825260208201905092915050565b6000819050602082019050919050565b61120481610f32565b82525050565b600082825260208201905092915050565b600061122682611004565b611230818561120a565b9350611240818560208601611020565b6112498161104a565b840191505092915050565b61125d81611094565b82525050565b600060a08301600083015161127b6000860182611129565b50602083015161128e60208601826111fb565b50604083015184820360408601526112a6828261121b565b91505060608301516112bb6060860182611129565b5060808301516112ce6080860182611254565b508091505092915050565b60006112e58383611263565b905092915050565b6000602082019050919050565b6000611305826111cf565b61130f81856111da565b935083602082028501611321856111eb565b8060005b8581101561135d578484038952815161133e85826112d9565b9450611349836112ed565b925060208a01995050600181019050611325565b50829750879550505050505092915050565b6000602082019050818103600083015261138981846112fa565b905092915050565b61139a81611094565b81146113a557600080fd5b50565b6000813590506113b781611391565b92915050565b6000602082840312156113d3576113d2610f08565b5b60006113e1848285016113a8565b91505092915050565b600060208284031215611400576113ff610f08565b5b600061140e84828501610f91565b91505092915050565b600060208201905061142c6000830184610fe6565b92915050565b600080fd5b600080fd5b7f4e487b7100000000000000000000000000000000000000000000000000000000600052604160045260246000fd5b6114748261104a565b810181811067ffffffffffffffff821117156114935761149261143c565b5b80604052505050565b60006114a6610efe565b90506114b2828261146b565b919050565b600067ffffffffffffffff8211156114d2576114d161143c565b5b6114db8261104a565b9050602081019050919050565b82818337600083830152505050565b600061150a611505846114b7565b61149c565b90508281526020810184848401111561152657611525611437565b5b6115318482856114e8565b509392505050565b600082601f83011261154e5761154d611432565b5b813561155e8482602086016114f7565b91505092915050565b60006020828403121561157d5761157c610f08565b5b600082013567ffffffffffffffff81111561159b5761159a610f0d565b5b6115a784828501611539565b91505092915050565b6000602082840312156115c6576115c5610f08565b5b60006115d484828501610f5b565b91505092915050565b60006040820190506115f260008301856110a0565b6115ff60208301846110a0565b9392505050565b7f4e487b7100000000000000000000000000000000000000000000000000000000600052602260045260246000fd5b6000600282049050600182168061164d57607f821691505b6020821081036116605761165f611606565b5b50919050565b7f416c726561647920766f74656400000000000000000000000000000000000000600082015250565b600061169c600d8361100f565b91506116a782611666565b602082019050919050565b600060208201905081810360008301526116cb8161168f565b9050919050565b7f4e487b7100000000000000000000000000000000000000000000000000000000600052601160045260246000fd5b600061170c82610f70565b91507fffffffffffffffffffffffffffffffffffffffffffffffffffffffffffffffff820361173e5761173d6116d2565b5b600182019050919050565b600060208201905061175e60008301846110a0565b92915050565b7f496e76616c696420636f6d6d656e74206c656e67746800000000000000000000600082015250565b600061179a60168361100f565b91506117a582611764565b602082019050919050565b600060208201905081810360008301526117c98161178d565b9050919050565b7f4d75737420766f74652066697273740000000000000000000000000000000000600082015250565b6000611806600f8361100f565b9150611811826117d0565b602082019050919050565b60006020820190508181036000830152611835816117f9565b9050919050565b60008190508160005260206000209050919050565b60006020601f8301049050919050565b600082821b905092915050565b60006008830261189e7fffffffffffffffffffffffffffffffffffffffffffffffffffffffffffffffff82611861565b6118a88683611861565b95508019841693508086168417925050509392505050565b6000819050919050565b60006118e56118e06118db84610f70565b6118c0565b610f70565b9050919050565b6000819050919050565b6118ff836118ca565b61191361190b826118ec565b84845461186e565b825550505050565b600090565b61192861191b565b6119338184846118f6565b505050565b5b818110156119575761194c600082611920565b600181019050611939565b5050565b601f82111561199c5761196d8161183c565b61197684611851565b81016020851015611985578190505b61199961199185611851565b830182611938565b50505b505050565b600082821c905092915050565b60006119bf600019846008026119a1565b1980831691505092915050565b60006119d883836119ae565b9150826002028217905092915050565b6119f182611004565b67ffffffffffffffff811115611a0a57611a0961143c565b5b611a148254611635565b611a1f82828561195b565b600060209050601f831160018114611a525760008415611a40578287015190505b611a4a85826119cc565b865550611ab2565b601f198416611a608661183c565b60005b82811015611a8857848901518255600182019150602085019450602081019050611a63565b86831015611aa55784890151611aa1601f8916826119ae565b8355505b6001600288020188555050505b505050505050565b6000608082019050611acf6000830187610fe6565b8181036020830152611ae1818661105b565b9050611af06040830185610fe6565b611afd60608301846110a0565b95945050505050565b6000611b1182610f70565b9150611b1c83610f70565b9250828203905081811115611b3457611b336116d2565b5b92915050565b7f556e617574686f72697a65643a206e6f74206f776e6572000000000000000000600082015250565b6000611b7060178361100f565b9150611b7b82611b3a565b602082019050919050565b60006020820190508181036000830152611b9f81611b63565b9050919050565b7f446561646c696e6520696e207468652070617374000000000000000000000000600082015250565b6000611bdc60148361100f565b9150611be782611ba6565b602082019050919050565b60006020820190508181036000830152611c0b81611bcf565b905091905056fea2646970667358221220f6ea4f05c3bdab1d5ab55ea9824f968464a509335281efe956b061b411af13a164736f6c63430008130033",
  "immutableReferences": {},
  "source": "// SPDX-License-Identifier: MIT\r\n\r\npragma solidity 0.8.19;\r\n\r\ncontract Vote {\r\n    uint256 public NextJsVotes = 0;\r\n    uint256 public NuxtJsVotes = 0;\r\n    uint16 private constant MAX_COMMENT_LENGTH = 200;\r\n    uint8 private constant MAX_BLOCKS_PER_MINUTE = 4;\r\n    uint8 private constant MIN_BLOCKS_PER_MINUTE = 3;\r\n    uint256 private votingDeadline;\r\n    address private _owner;\r\n    uint256 private lastBlockNumber;\r\n    uint256 private lastTimestamp;\r\n\r\n    constructor(uint256 _votingDuration) {\r\n        _owner = msg.sender;\r\n        votingDeadline = block.timestamp + _votingDuration;\r\n        lastBlockNumber = block.number;\r\n        lastTimestamp = block.timestamp;\r\n    }\r\n\r\n    struct Comment {\r\n        uint256 id;\r\n        address author;\r\n        string content;\r\n        uint256 timestamp;\r\n        bool isForNextJs;\r\n    }\r\n\r\n    struct Voter {\r\n        bool hasVoted;\r\n        bool voteForNextJs;\r\n    }\r\n\r\n    event NewVoteSubmitted(address indexed voter, bool voteForNextJs);\r\n    event VotingDeadlineExtended(uint256 newDeadline);\r\n    event CommentCreated(\r\n        uint256 id,\r\n        address indexed author,\r\n        string content,\r\n        uint256 timestamp,\r\n        bool voteForNextJs\r\n    );\r\n\r\n    mapping(address => Voter) public voters;\r\n    mapping(address => Comment[]) public comments;\r\n    Comment[] public allComments;\r\n\r\n    modifier checkBlocksAndTime() {\r\n        require(\r\n            block.timestamp >= lastTimestamp + 1 minutes,\r\n            \"Less than a minute\"\r\n        );\r\n        uint256 blocksPassed = block.number - lastBlockNumber;\r\n        require(\r\n            blocksPassed >= MIN_BLOCKS_PER_MINUTE &&\r\n                blocksPassed <= MAX_BLOCKS_PER_MINUTE,\r\n            \"Block count out of range\"\r\n        );\r\n        require(block.timestamp < votingDeadline, \"Voting deadline passed\");\r\n        _;\r\n        lastBlockNumber = block.number;\r\n        lastTimestamp = block.timestamp;\r\n    }\r\n\r\n    modifier onlyOneVote() {\r\n        require(!voters[msg.sender].hasVoted, \"Already voted\");\r\n        _;\r\n    }\r\n\r\n    modifier onlyTheOwner() {\r\n        require(msg.sender == _owner, \"Unauthorized: not owner\");\r\n        _;\r\n    }\r\n\r\n    function setVotingDeadline(uint256 newDeadline) public onlyTheOwner {\r\n        require(newDeadline > block.timestamp, \"Deadline in the past\");\r\n        votingDeadline = newDeadline;\r\n        emit VotingDeadlineExtended(newDeadline);\r\n    }\r\n\r\n    function vote(bool isForNextJs) external onlyOneVote {\r\n        if (isForNextJs) {\r\n            NextJsVotes++;\r\n        } else {\r\n            NuxtJsVotes++;\r\n        }\r\n        voters[msg.sender] = Voter(true, isForNextJs);\r\n        emit NewVoteSubmitted(msg.sender, isForNextJs);\r\n    }\r\n\r\n    function createComment(string memory _comment) public {\r\n        require(\r\n            bytes(_comment).length > 0 &&\r\n                bytes(_comment).length <= MAX_COMMENT_LENGTH,\r\n            \"Invalid comment length\"\r\n        );\r\n        require(voters[msg.sender].hasVoted, \"Must vote first\");\r\n\r\n        Comment memory newComment = Comment({\r\n            id: comments[msg.sender].length,\r\n            author: msg.sender,\r\n            content: _comment,\r\n            timestamp: block.timestamp,\r\n            isForNextJs: voters[msg.sender].voteForNextJs\r\n        });\r\n        comments[msg.sender].push(newComment);\r\n        allComments.push(newComment);\r\n\r\n        emit CommentCreated(\r\n            newComment.id,\r\n            newComment.author,\r\n            newComment.content,\r\n            newComment.timestamp,\r\n            newComment.isForNextJs\r\n        );\r\n    }\r\n\r\n    function getVotes() public view returns (uint256[2] memory) {\r\n        return [NextJsVotes, NuxtJsVotes];\r\n    }\r\n\r\n    function getCommentsByVoter(\r\n        address voter\r\n    ) public view returns (Comment[] memory) {\r\n        return comments[voter];\r\n    }\r\n\r\n    function getAllComments() public view returns (Comment[] memory) {\r\n        return allComments;\r\n    }\r\n\r\n    function timeLeftForVoting() public view returns (uint256) {\r\n        return\r\n            block.timestamp >= votingDeadline\r\n                ? 0\r\n                : votingDeadline - block.timestamp;\r\n    }\r\n}\r\n",
  "sourcePath": "C:\\Users\\Front Phoenix\\Desktop\\BlockChain\\Vote Dapp\\contracts\\Vote.sol",
  "compiler": {
    "name": "solc",
    "version": "0.8.19+commit.7dd6d404.Emscripten.clang"
  },
  "schemaVersion": "3.4.16",
  "updatedAt": "2024-01-05T11:47:55.955Z",
  "networkType": "ethereum",
  "devdoc": {
    "kind": "dev",
    "methods": {},
    "version": 1
  },
  "userdoc": {
    "kind": "user",
    "methods": {},
    "version": 1
  }
}